{"abi":[{"type":"constructor","inputs":[{"name":"baseGatewayURI_","type":"string","internalType":"string"}],"stateMutability":"nonpayable"},{"type":"function","name":"MINT_FEE","inputs":[],"outputs":[{"name":"","type":"uint256","internalType":"uint256"}],"stateMutability":"view"},{"type":"function","name":"approve","inputs":[{"name":"to","type":"address","internalType":"address"},{"name":"tokenId","type":"uint256","internalType":"uint256"}],"outputs":[],"stateMutability":"nonpayable"},{"type":"function","name":"balanceOf","inputs":[{"name":"owner","type":"address","internalType":"address"}],"outputs":[{"name":"","type":"uint256","internalType":"uint256"}],"stateMutability":"view"},{"type":"function","name":"freeMintCredit","inputs":[{"name":"","type":"address","internalType":"address"}],"outputs":[{"name":"","type":"bool","internalType":"bool"}],"stateMutability":"view"},{"type":"function","name":"getApproved","inputs":[{"name":"tokenId","type":"uint256","internalType":"uint256"}],"outputs":[{"name":"","type":"address","internalType":"address"}],"stateMutability":"view"},{"type":"function","name":"getCertificateData","inputs":[{"name":"user","type":"address","internalType":"address"}],"outputs":[{"name":"_referralCount","type":"uint256","internalType":"uint256"},{"name":"_freeMintCredit","type":"bool","internalType":"bool"},{"name":"tokenId","type":"uint256","internalType":"uint256"},{"name":"_versionIds","type":"uint256[]","internalType":"uint256[]"}],"stateMutability":"view"},{"type":"function","name":"getTokenId","inputs":[{"name":"user","type":"address","internalType":"address"}],"outputs":[{"name":"","type":"uint256","internalType":"uint256"}],"stateMutability":"view"},{"type":"function","name":"getVersionIds","inputs":[{"name":"user","type":"address","internalType":"address"}],"outputs":[{"name":"","type":"uint256[]","internalType":"uint256[]"}],"stateMutability":"view"},{"type":"function","name":"hasCertificate","inputs":[{"name":"","type":"address","internalType":"address"}],"outputs":[{"name":"","type":"bool","internalType":"bool"}],"stateMutability":"view"},{"type":"function","name":"isApprovedForAll","inputs":[{"name":"owner","type":"address","internalType":"address"},{"name":"operator","type":"address","internalType":"address"}],"outputs":[{"name":"","type":"bool","internalType":"bool"}],"stateMutability":"view"},{"type":"function","name":"mint","inputs":[{"name":"cid","type":"string","internalType":"string"}],"outputs":[],"stateMutability":"payable"},{"type":"function","name":"mintFor","inputs":[{"name":"user","type":"address","internalType":"address"},{"name":"cid","type":"string","internalType":"string"},{"name":"referrer","type":"address","internalType":"address"}],"outputs":[],"stateMutability":"nonpayable"},{"type":"function","name":"mintVersion","inputs":[{"name":"user","type":"address","internalType":"address"},{"name":"newCid","type":"string","internalType":"string"}],"outputs":[],"stateMutability":"nonpayable"},{"type":"function","name":"name","inputs":[],"outputs":[{"name":"","type":"string","internalType":"string"}],"stateMutability":"view"},{"type":"function","name":"owner","inputs":[],"outputs":[{"name":"","type":"address","internalType":"address"}],"stateMutability":"view"},{"type":"function","name":"ownerOf","inputs":[{"name":"tokenId","type":"uint256","internalType":"uint256"}],"outputs":[{"name":"","type":"address","internalType":"address"}],"stateMutability":"view"},{"type":"function","name":"pause","inputs":[],"outputs":[],"stateMutability":"nonpayable"},{"type":"function","name":"paused","inputs":[],"outputs":[{"name":"","type":"bool","internalType":"bool"}],"stateMutability":"view"},{"type":"function","name":"referralCount","inputs":[{"name":"","type":"address","internalType":"address"}],"outputs":[{"name":"","type":"uint256","internalType":"uint256"}],"stateMutability":"view"},{"type":"function","name":"referrers","inputs":[{"name":"","type":"address","internalType":"address"}],"outputs":[{"name":"","type":"address","internalType":"address"}],"stateMutability":"view"},{"type":"function","name":"renounceOwnership","inputs":[],"outputs":[],"stateMutability":"nonpayable"},{"type":"function","name":"revoke","inputs":[{"name":"tokenId","type":"uint256","internalType":"uint256"}],"outputs":[],"stateMutability":"nonpayable"},{"type":"function","name":"safeTransferFrom","inputs":[{"name":"from","type":"address","internalType":"address"},{"name":"to","type":"address","internalType":"address"},{"name":"tokenId","type":"uint256","internalType":"uint256"}],"outputs":[],"stateMutability":"nonpayable"},{"type":"function","name":"safeTransferFrom","inputs":[{"name":"from","type":"address","internalType":"address"},{"name":"to","type":"address","internalType":"address"},{"name":"tokenId","type":"uint256","internalType":"uint256"},{"name":"data","type":"bytes","internalType":"bytes"}],"outputs":[],"stateMutability":"nonpayable"},{"type":"function","name":"setApprovalForAll","inputs":[{"name":"operator","type":"address","internalType":"address"},{"name":"approved","type":"bool","internalType":"bool"}],"outputs":[],"stateMutability":"nonpayable"},{"type":"function","name":"setBaseGatewayURI","inputs":[{"name":"newBaseGatewayURI","type":"string","internalType":"string"}],"outputs":[],"stateMutability":"nonpayable"},{"type":"function","name":"supportsInterface","inputs":[{"name":"interfaceId","type":"bytes4","internalType":"bytes4"}],"outputs":[{"name":"","type":"bool","internalType":"bool"}],"stateMutability":"view"},{"type":"function","name":"symbol","inputs":[],"outputs":[{"name":"","type":"string","internalType":"string"}],"stateMutability":"view"},{"type":"function","name":"tokenIds","inputs":[{"name":"","type":"address","internalType":"address"}],"outputs":[{"name":"","type":"uint256","internalType":"uint256"}],"stateMutability":"view"},{"type":"function","name":"tokenURI","inputs":[{"name":"tokenId","type":"uint256","internalType":"uint256"}],"outputs":[{"name":"","type":"string","internalType":"string"}],"stateMutability":"view"},{"type":"function","name":"transferFrom","inputs":[{"name":"from","type":"address","internalType":"address"},{"name":"to","type":"address","internalType":"address"},{"name":"tokenId","type":"uint256","internalType":"uint256"}],"outputs":[],"stateMutability":"nonpayable"},{"type":"function","name":"transferOwnership","inputs":[{"name":"newOwner","type":"address","internalType":"address"}],"outputs":[],"stateMutability":"nonpayable"},{"type":"function","name":"unpause","inputs":[],"outputs":[],"stateMutability":"nonpayable"},{"type":"function","name":"verifyCertificate","inputs":[{"name":"user","type":"address","internalType":"address"},{"name":"tokenId","type":"uint256","internalType":"uint256"}],"outputs":[{"name":"isValid","type":"bool","internalType":"bool"},{"name":"cid","type":"string","internalType":"string"}],"stateMutability":"view"},{"type":"function","name":"versionIds","inputs":[{"name":"","type":"address","internalType":"address"},{"name":"","type":"uint256","internalType":"uint256"}],"outputs":[{"name":"","type":"uint256","internalType":"uint256"}],"stateMutability":"view"},{"type":"function","name":"withdrawFees","inputs":[],"outputs":[],"stateMutability":"nonpayable"},{"type":"event","name":"Approval","inputs":[{"name":"owner","type":"address","indexed":true,"internalType":"address"},{"name":"approved","type":"address","indexed":true,"internalType":"address"},{"name":"tokenId","type":"uint256","indexed":true,"internalType":"uint256"}],"anonymous":false},{"type":"event","name":"ApprovalForAll","inputs":[{"name":"owner","type":"address","indexed":true,"internalType":"address"},{"name":"operator","type":"address","indexed":true,"internalType":"address"},{"name":"approved","type":"bool","indexed":false,"internalType":"bool"}],"anonymous":false},{"type":"event","name":"BatchMetadataUpdate","inputs":[{"name":"_fromTokenId","type":"uint256","indexed":false,"internalType":"uint256"},{"name":"_toTokenId","type":"uint256","indexed":false,"internalType":"uint256"}],"anonymous":false},{"type":"event","name":"CertificateMinted","inputs":[{"name":"to","type":"address","indexed":true,"internalType":"address"},{"name":"tokenId","type":"uint256","indexed":true,"internalType":"uint256"},{"name":"cid","type":"string","indexed":false,"internalType":"string"}],"anonymous":false},{"type":"event","name":"CertificateRevoked","inputs":[{"name":"user","type":"address","indexed":true,"internalType":"address"},{"name":"tokenId","type":"uint256","indexed":true,"internalType":"uint256"}],"anonymous":false},{"type":"event","name":"CertificateVersionMinted","inputs":[{"name":"to","type":"address","indexed":true,"internalType":"address"},{"name":"tokenId","type":"uint256","indexed":true,"internalType":"uint256"},{"name":"cid","type":"string","indexed":false,"internalType":"string"}],"anonymous":false},{"type":"event","name":"MetadataUpdate","inputs":[{"name":"_tokenId","type":"uint256","indexed":false,"internalType":"uint256"}],"anonymous":false},{"type":"event","name":"OwnershipTransferred","inputs":[{"name":"previousOwner","type":"address","indexed":true,"internalType":"address"},{"name":"newOwner","type":"address","indexed":true,"internalType":"address"}],"anonymous":false},{"type":"event","name":"Paused","inputs":[{"name":"account","type":"address","indexed":false,"internalType":"address"}],"anonymous":false},{"type":"event","name":"Referred","inputs":[{"name":"referrer","type":"address","indexed":true,"internalType":"address"},{"name":"referee","type":"address","indexed":true,"internalType":"address"}],"anonymous":false},{"type":"event","name":"Transfer","inputs":[{"name":"from","type":"address","indexed":true,"internalType":"address"},{"name":"to","type":"address","indexed":true,"internalType":"address"},{"name":"tokenId","type":"uint256","indexed":true,"internalType":"uint256"}],"anonymous":false},{"type":"event","name":"Unpaused","inputs":[{"name":"account","type":"address","indexed":false,"internalType":"address"}],"anonymous":false},{"type":"error","name":"ERC721IncorrectOwner","inputs":[{"name":"sender","type":"address","internalType":"address"},{"name":"tokenId","type":"uint256","internalType":"uint256"},{"name":"owner","type":"address","internalType":"address"}]},{"type":"error","name":"ERC721InsufficientApproval","inputs":[{"name":"operator","type":"address","internalType":"address"},{"name":"tokenId","type":"uint256","internalType":"uint256"}]},{"type":"error","name":"ERC721InvalidApprover","inputs":[{"name":"approver","type":"address","internalType":"address"}]},{"type":"error","name":"ERC721InvalidOperator","inputs":[{"name":"operator","type":"address","internalType":"address"}]},{"type":"error","name":"ERC721InvalidOwner","inputs":[{"name":"owner","type":"address","internalType":"address"}]},{"type":"error","name":"ERC721InvalidReceiver","inputs":[{"name":"receiver","type":"address","internalType":"address"}]},{"type":"error","name":"ERC721InvalidSender","inputs":[{"name":"sender","type":"address","internalType":"address"}]},{"type":"error","name":"ERC721NonexistentToken","inputs":[{"name":"tokenId","type":"uint256","internalType":"uint256"}]},{"type":"error","name":"EnforcedPause","inputs":[]},{"type":"error","name":"ExpectedPause","inputs":[]},{"type":"error","name":"OwnableInvalidOwner","inputs":[{"name":"owner","type":"address","internalType":"address"}]},{"type":"error","name":"OwnableUnauthorizedAccount","inputs":[{"name":"account","type":"address","internalType":"address"}]}],"bytecode":{"object":"0x608060405234801561000f575f5ffd5b50604051614b1f380380614b1f83398181016040528101906100319190610388565b336040518060400160405280600e81526020017f43657274696669636174654e46540000000000000000000000000000000000008152506040518060400160405280600481526020017f434e465400000000000000000000000000000000000000000000000000000000815250815f90816100ac91906105df565b5080600190816100bc91906105df565b5050505f60075f6101000a81548160ff0219169083151502179055505f73ffffffffffffffffffffffffffffffffffffffff168173ffffffffffffffffffffffffffffffffffffffff1603610148575f6040517f1e4fbdf700000000000000000000000000000000000000000000000000000000815260040161013f91906106ed565b60405180910390fd5b6101578161017660201b60201c565b50806009908161016791906105df565b50600160088190555050610706565b5f600760019054906101000a900473ffffffffffffffffffffffffffffffffffffffff16905081600760016101000a81548173ffffffffffffffffffffffffffffffffffffffff021916908373ffffffffffffffffffffffffffffffffffffffff1602179055508173ffffffffffffffffffffffffffffffffffffffff168173ffffffffffffffffffffffffffffffffffffffff167f8be0079c531659141344cd1fd0a4f28419497f9722a3daafe3b4186f6b6457e060405160405180910390a35050565b5f604051905090565b5f5ffd5b5f5ffd5b5f5ffd5b5f5ffd5b5f601f19601f8301169050919050565b7f4e487b71000000000000000000000000000000000000000000000000000000005f52604160045260245ffd5b61029a82610254565b810181811067ffffffffffffffff821117156102b9576102b8610264565b5b80604052505050565b5f6102cb61023b565b90506102d78282610291565b919050565b5f67ffffffffffffffff8211156102f6576102f5610264565b5b6102ff82610254565b9050602081019050919050565b8281835e5f83830152505050565b5f61032c610327846102dc565b6102c2565b90508281526020810184848401111561034857610347610250565b5b61035384828561030c565b509392505050565b5f82601f83011261036f5761036e61024c565b5b815161037f84826020860161031a565b91505092915050565b5f6020828403121561039d5761039c610244565b5b5f82015167ffffffffffffffff8111156103ba576103b9610248565b5b6103c68482850161035b565b91505092915050565b5f81519050919050565b7f4e487b71000000000000000000000000000000000000000000000000000000005f52602260045260245ffd5b5f600282049050600182168061041d57607f821691505b6020821081036104305761042f6103d9565b5b50919050565b5f819050815f5260205f209050919050565b5f6020601f8301049050919050565b5f82821b905092915050565b5f600883026104927fffffffffffffffffffffffffffffffffffffffffffffffffffffffffffffffff82610457565b61049c8683610457565b95508019841693508086168417925050509392505050565b5f819050919050565b5f819050919050565b5f6104e06104db6104d6846104b4565b6104bd565b6104b4565b9050919050565b5f819050919050565b6104f9836104c6565b61050d610505826104e7565b848454610463565b825550505050565b5f5f905090565b610524610515565b61052f8184846104f0565b505050565b5b81811015610552576105475f8261051c565b600181019050610535565b5050565b601f8211156105975761056881610436565b61057184610448565b81016020851015610580578190505b61059461058c85610448565b830182610534565b50505b505050565b5f82821c905092915050565b5f6105b75f198460080261059c565b1980831691505092915050565b5f6105cf83836105a8565b9150826002028217905092915050565b6105e8826103cf565b67ffffffffffffffff81111561060157610600610264565b5b61060b8254610406565b610616828285610556565b5f60209050601f831160018114610647575f8415610635578287015190505b61063f85826105c4565b8655506106a6565b601f19841661065586610436565b5f5b8281101561067c57848901518255600182019150602085019450602081019050610657565b868310156106995784890151610695601f8916826105a8565b8355505b6001600288020188555050505b505050505050565b5f73ffffffffffffffffffffffffffffffffffffffff82169050919050565b5f6106d7826106ae565b9050919050565b6106e7816106cd565b82525050565b5f6020820190506107005f8301846106de565b92915050565b61440c806107135f395ff3fe60806040526004361061020e575f3560e01c80638456cb5911610117578063c87b56dd1161009f578063db74559b1161006e578063db74559b14610794578063e985e9c5146107d0578063f15376861461080c578063f2fde38b14610848578063fc97a303146108705761020e565b8063c87b56dd146106d5578063d7bf81a314610711578063d85d3d271461073b578063d9af3691146107575761020e565b8063a1a3d743116100e6578063a1a3d743146105e2578063a22cb4651461060a578063aa23bd7814610632578063b88d4fde1461066e578063c3be3ce1146106965761020e565b80638456cb59146105505780638da5cb5b146105665780638fa3e8ac1461059057806395d89b41146105b85761020e565b806342842e0e1161019a5780636352211e116101695780636352211e1461045e57806370a082311461049a578063715018a6146104d657806376f9c1dd146104ec5780637bb79427146105285761020e565b806342842e0e146103ba578063476343ee146103e25780634a3b68cc146103f85780635c975abb146104345761020e565b8063095ea7b3116101e1578063095ea7b3146102f05780630c02199b1461031857806320c5429b1461035457806323b872dd1461037c5780633f4ba83a146103a45761020e565b806301ffc9a71461021257806306fdde031461024e57806307a4c19814610278578063081812fc146102b4575b5f5ffd5b34801561021d575f5ffd5b5061023860048036038101906102339190613359565b6108ac565b604051610245919061339e565b60405180910390f35b348015610259575f5ffd5b506102626108bd565b60405161026f9190613427565b60405180910390f35b348015610283575f5ffd5b5061029e600480360381019061029991906134d4565b61094c565b6040516102ab9190613521565b60405180910390f35b3480156102bf575f5ffd5b506102da60048036038101906102d5919061353a565b610977565b6040516102e79190613574565b60405180910390f35b3480156102fb575f5ffd5b50610316600480360381019061031191906134d4565b610992565b005b348015610323575f5ffd5b5061033e6004803603810190610339919061358d565b6109a8565b60405161034b919061339e565b60405180910390f35b34801561035f575f5ffd5b5061037a6004803603810190610375919061353a565b6109c5565b005b348015610387575f5ffd5b506103a2600480360381019061039d91906135b8565b610b05565b005b3480156103af575f5ffd5b506103b8610c04565b005b3480156103c5575f5ffd5b506103e060048036038101906103db91906135b8565b610c16565b005b3480156103ed575f5ffd5b506103f6610c35565b005b348015610403575f5ffd5b5061041e6004803603810190610419919061358d565b610d36565b60405161042b9190613574565b60405180910390f35b34801561043f575f5ffd5b50610448610d66565b604051610455919061339e565b60405180910390f35b348015610469575f5ffd5b50610484600480360381019061047f919061353a565b610d7b565b6040516104919190613574565b60405180910390f35b3480156104a5575f5ffd5b506104c060048036038101906104bb919061358d565b610d8c565b6040516104cd9190613521565b60405180910390f35b3480156104e1575f5ffd5b506104ea610e42565b005b3480156104f7575f5ffd5b50610512600480360381019061050d919061358d565b610e55565b60405161051f91906136bf565b60405180910390f35b348015610533575f5ffd5b5061054e6004803603810190610549919061380b565b610ee8565b005b34801561055b575f5ffd5b50610564610f03565b005b348015610571575f5ffd5b5061057a610f15565b6040516105879190613574565b60405180910390f35b34801561059b575f5ffd5b506105b660048036038101906105b19190613852565b610f3e565b005b3480156105c3575f5ffd5b506105cc6113b5565b6040516105d99190613427565b60405180910390f35b3480156105ed575f5ffd5b50610608600480360381019061060391906138be565b611445565b005b348015610615575f5ffd5b50610630600480360381019061062b9190613942565b6116aa565b005b34801561063d575f5ffd5b506106586004803603810190610653919061358d565b6116c0565b604051610665919061339e565b60405180910390f35b348015610679575f5ffd5b50610694600480360381019061068f9190613a1e565b6116dd565b005b3480156106a1575f5ffd5b506106bc60048036038101906106b7919061358d565b6116fa565b6040516106cc9493929190613a9e565b60405180910390f35b3480156106e0575f5ffd5b506106fb60048036038101906106f6919061353a565b611861565b6040516107089190613427565b60405180910390f35b34801561071c575f5ffd5b50610725611873565b6040516107329190613521565b60405180910390f35b6107556004803603810190610750919061380b565b61187e565b005b348015610762575f5ffd5b5061077d600480360381019061077891906134d4565b611bad565b60405161078b929190613ae8565b60405180910390f35b34801561079f575f5ffd5b506107ba60048036038101906107b5919061358d565b611cb6565b6040516107c79190613521565b60405180910390f35b3480156107db575f5ffd5b506107f660048036038101906107f19190613b16565b611ccb565b604051610803919061339e565b60405180910390f35b348015610817575f5ffd5b50610832600480360381019061082d919061358d565b611d59565b60405161083f9190613521565b60405180910390f35b348015610853575f5ffd5b5061086e6004803603810190610869919061358d565b611d9f565b005b34801561087b575f5ffd5b506108966004803603810190610891919061358d565b611e23565b6040516108a39190613521565b60405180910390f35b5f6108b682611e38565b9050919050565b60605f80546108cb90613b81565b80601f01602080910402602001604051908101604052809291908181526020018280546108f790613b81565b80156109425780601f1061091957610100808354040283529160200191610942565b820191905f5260205f20905b81548152906001019060200180831161092557829003601f168201915b5050505050905090565b600c602052815f5260405f208181548110610965575f80fd5b905f5260205f20015f91509150505481565b5f61098182611e98565b5061098b82611f1e565b9050919050565b6109a4828261099f611f57565b611f5e565b5050565b600a602052805f5260405f205f915054906101000a900460ff1681565b6109cd611f70565b5f6109d782610d7b565b90506109e282611ff7565b81600b5f8373ffffffffffffffffffffffffffffffffffffffff1673ffffffffffffffffffffffffffffffffffffffff1681526020019081526020015f205403610abd575f600a5f8373ffffffffffffffffffffffffffffffffffffffff1673ffffffffffffffffffffffffffffffffffffffff1681526020019081526020015f205f6101000a81548160ff0219169083151502179055505f600b5f8373ffffffffffffffffffffffffffffffffffffffff1673ffffffffffffffffffffffffffffffffffffffff1681526020019081526020015f20819055505b818173ffffffffffffffffffffffffffffffffffffffff167f4eccfa1b61f5d33b8d9c8f3ec5a92e8cd7ae963d459827b036e42bef0df4cf4460405160405180910390a35050565b5f73ffffffffffffffffffffffffffffffffffffffff168273ffffffffffffffffffffffffffffffffffffffff1603610b75575f6040517f64a0ae92000000000000000000000000000000000000000000000000000000008152600401610b6c9190613574565b60405180910390fd5b5f610b888383610b83611f57565b61201b565b90508373ffffffffffffffffffffffffffffffffffffffff168173ffffffffffffffffffffffffffffffffffffffff1614610bfe578382826040517f64283d7b000000000000000000000000000000000000000000000000000000008152600401610bf593929190613bb1565b60405180910390fd5b50505050565b610c0c611f70565b610c146120dc565b565b610c3083838360405180602001604052805f8152506116dd565b505050565b610c3d611f70565b5f4790505f8111610c83576040517f08c379a0000000000000000000000000000000000000000000000000000000008152600401610c7a90613c30565b60405180910390fd5b5f610c8c610f15565b73ffffffffffffffffffffffffffffffffffffffff1682604051610caf90613c7b565b5f6040518083038185875af1925050503d805f8114610ce9576040519150601f19603f3d011682016040523d82523d5f602084013e610cee565b606091505b5050905080610d32576040517f08c379a0000000000000000000000000000000000000000000000000000000008152600401610d2990613cd9565b60405180910390fd5b5050565b600f602052805f5260405f205f915054906101000a900473ffffffffffffffffffffffffffffffffffffffff1681565b5f60075f9054906101000a900460ff16905090565b5f610d8582611e98565b9050919050565b5f5f73ffffffffffffffffffffffffffffffffffffffff168273ffffffffffffffffffffffffffffffffffffffff1603610dfd575f6040517f89c62b64000000000000000000000000000000000000000000000000000000008152600401610df49190613574565b60405180910390fd5b60035f8373ffffffffffffffffffffffffffffffffffffffff1673ffffffffffffffffffffffffffffffffffffffff1681526020019081526020015f20549050919050565b610e4a611f70565b610e535f61213d565b565b6060600c5f8373ffffffffffffffffffffffffffffffffffffffff1673ffffffffffffffffffffffffffffffffffffffff1681526020019081526020015f20805480602002602001604051908101604052809291908181526020018280548015610edc57602002820191905f5260205f20905b815481526020019060010190808311610ec8575b50505050509050919050565b610ef0611f70565b8060099081610eff9190613e97565b5050565b610f0b611f70565b610f13612202565b565b5f600760019054906101000a900473ffffffffffffffffffffffffffffffffffffffff16905090565b610f46611f70565b600a5f8473ffffffffffffffffffffffffffffffffffffffff1673ffffffffffffffffffffffffffffffffffffffff1681526020019081526020015f205f9054906101000a900460ff1615610fd0576040517f08c379a0000000000000000000000000000000000000000000000000000000008152600401610fc790613fb0565b60405180910390fd5b5f825111611013576040517f08c379a000000000000000000000000000000000000000000000000000000000815260040161100a90614018565b60405180910390fd5b5f600854905060085f81548092919061102b90614063565b91905055506001600a5f8673ffffffffffffffffffffffffffffffffffffffff1673ffffffffffffffffffffffffffffffffffffffff1681526020019081526020015f205f6101000a81548160ff02191690831515021790555080600b5f8673ffffffffffffffffffffffffffffffffffffffff1673ffffffffffffffffffffffffffffffffffffffff1681526020019081526020015f20819055506110d18482612264565b6110db8184612281565b5f73ffffffffffffffffffffffffffffffffffffffff168273ffffffffffffffffffffffffffffffffffffffff161415801561114357508373ffffffffffffffffffffffffffffffffffffffff168273ffffffffffffffffffffffffffffffffffffffff1614155b1561136057600d5f8373ffffffffffffffffffffffffffffffffffffffff1673ffffffffffffffffffffffffffffffffffffffff1681526020019081526020015f205f81548092919061119590614063565b919050555081600f5f8673ffffffffffffffffffffffffffffffffffffffff1673ffffffffffffffffffffffffffffffffffffffff1681526020019081526020015f205f6101000a81548173ffffffffffffffffffffffffffffffffffffffff021916908373ffffffffffffffffffffffffffffffffffffffff1602179055506003600d5f8473ffffffffffffffffffffffffffffffffffffffff1673ffffffffffffffffffffffffffffffffffffffff1681526020019081526020015f2054101580156112aa5750600e5f8373ffffffffffffffffffffffffffffffffffffffff1673ffffffffffffffffffffffffffffffffffffffff1681526020019081526020015f205f9054906101000a900460ff16155b15611305576001600e5f8473ffffffffffffffffffffffffffffffffffffffff1673ffffffffffffffffffffffffffffffffffffffff1681526020019081526020015f205f6101000a81548160ff0219169083151502179055505b8373ffffffffffffffffffffffffffffffffffffffff168273ffffffffffffffffffffffffffffffffffffffff167f2c07cd45454a31c572d49686c5ec6fef884778b2cf441c7fd58f4bde0fa6400b60405160405180910390a35b808473ffffffffffffffffffffffffffffffffffffffff167fde5d6fd45e32fffb472bcbaeedf6a2e3944633c9701eec7d99adfa07ad6104c1856040516113a79190613427565b60405180910390a350505050565b6060600180546113c490613b81565b80601f01602080910402602001604051908101604052809291908181526020018280546113f090613b81565b801561143b5780601f106114125761010080835404028352916020019161143b565b820191905f5260205f20905b81548152906001019060200180831161141e57829003601f168201915b5050505050905090565b61144d6122db565b600a5f8373ffffffffffffffffffffffffffffffffffffffff1673ffffffffffffffffffffffffffffffffffffffff1681526020019081526020015f205f9054906101000a900460ff166114d6576040517f08c379a00000000000000000000000000000000000000000000000000000000081526004016114cd906140f4565b60405180910390fd5b8173ffffffffffffffffffffffffffffffffffffffff163373ffffffffffffffffffffffffffffffffffffffff1614806115425750611513610f15565b73ffffffffffffffffffffffffffffffffffffffff163373ffffffffffffffffffffffffffffffffffffffff16145b611581576040517f08c379a00000000000000000000000000000000000000000000000000000000081526004016115789061415c565b60405180910390fd5b5f8151116115c4576040517f08c379a00000000000000000000000000000000000000000000000000000000081526004016115bb90614018565b60405180910390fd5b5f600854905060085f8154809291906115dc90614063565b91905055506115eb8382612264565b6115f58183612281565b600c5f8473ffffffffffffffffffffffffffffffffffffffff1673ffffffffffffffffffffffffffffffffffffffff1681526020019081526020015f2081908060018154018082558091505060019003905f5260205f20015f9091909190915055808373ffffffffffffffffffffffffffffffffffffffff167f8f17e87ddb46187b5ec6f61cd9b1ba2d01d1ad4821c5e42915930648e3973b878460405161169d9190613427565b60405180910390a3505050565b6116bc6116b5611f57565b838361231c565b5050565b600e602052805f5260405f205f915054906101000a900460ff1681565b6116e8848484610b05565b6116f484848484612485565b50505050565b5f5f5f6060600d5f8673ffffffffffffffffffffffffffffffffffffffff1673ffffffffffffffffffffffffffffffffffffffff1681526020019081526020015f2054600e5f8773ffffffffffffffffffffffffffffffffffffffff1673ffffffffffffffffffffffffffffffffffffffff1681526020019081526020015f205f9054906101000a900460ff16600b5f8873ffffffffffffffffffffffffffffffffffffffff1673ffffffffffffffffffffffffffffffffffffffff1681526020019081526020015f2054600c5f8973ffffffffffffffffffffffffffffffffffffffff1673ffffffffffffffffffffffffffffffffffffffff1681526020019081526020015f208080548060200260200160405190810160405280929190818152602001828054801561184b57602002820191905f5260205f20905b815481526020019060010190808311611837575b5050505050905093509350935093509193509193565b606061186c82612637565b9050919050565b662386f26fc1000081565b6118866122db565b600a5f3373ffffffffffffffffffffffffffffffffffffffff1673ffffffffffffffffffffffffffffffffffffffff1681526020019081526020015f205f9054906101000a900460ff1615611910576040517f08c379a000000000000000000000000000000000000000000000000000000000815260040161190790613fb0565b60405180910390fd5b5f815111611953576040517f08c379a000000000000000000000000000000000000000000000000000000000815260040161194a90614018565b60405180910390fd5b662386f26fc10000341015806119af5750600e5f3373ffffffffffffffffffffffffffffffffffffffff1673ffffffffffffffffffffffffffffffffffffffff1681526020019081526020015f205f9054906101000a900460ff165b6119ee576040517f08c379a00000000000000000000000000000000000000000000000000000000081526004016119e5906141c4565b60405180910390fd5b5f600854905060085f815480929190611a0690614063565b91905055506001600a5f3373ffffffffffffffffffffffffffffffffffffffff1673ffffffffffffffffffffffffffffffffffffffff1681526020019081526020015f205f6101000a81548160ff02191690831515021790555080600b5f3373ffffffffffffffffffffffffffffffffffffffff1673ffffffffffffffffffffffffffffffffffffffff1681526020019081526020015f2081905550611aac3382612264565b611ab68183612281565b600e5f3373ffffffffffffffffffffffffffffffffffffffff1673ffffffffffffffffffffffffffffffffffffffff1681526020019081526020015f205f9054906101000a900460ff1615611b5a575f600e5f3373ffffffffffffffffffffffffffffffffffffffff1673ffffffffffffffffffffffffffffffffffffffff1681526020019081526020015f205f6101000a81548160ff0219169083151502179055505b803373ffffffffffffffffffffffffffffffffffffffff167fde5d6fd45e32fffb472bcbaeedf6a2e3944633c9701eec7d99adfa07ad6104c184604051611ba19190613427565b60405180910390a35050565b5f6060600a5f8573ffffffffffffffffffffffffffffffffffffffff1673ffffffffffffffffffffffffffffffffffffffff1681526020019081526020015f205f9054906101000a900460ff161580611c43575082600b5f8673ffffffffffffffffffffffffffffffffffffffff1673ffffffffffffffffffffffffffffffffffffffff1681526020019081526020015f205414155b80611c8157505f73ffffffffffffffffffffffffffffffffffffffff16611c6984612742565b73ffffffffffffffffffffffffffffffffffffffff16145b15611c9f575f60405180602001604052805f81525091509150611caf565b6001611caa84611861565b915091505b9250929050565b600d602052805f5260405f205f915090505481565b5f60055f8473ffffffffffffffffffffffffffffffffffffffff1673ffffffffffffffffffffffffffffffffffffffff1681526020019081526020015f205f8373ffffffffffffffffffffffffffffffffffffffff1673ffffffffffffffffffffffffffffffffffffffff1681526020019081526020015f205f9054906101000a900460ff16905092915050565b5f600b5f8373ffffffffffffffffffffffffffffffffffffffff1673ffffffffffffffffffffffffffffffffffffffff1681526020019081526020015f20549050919050565b611da7611f70565b5f73ffffffffffffffffffffffffffffffffffffffff168173ffffffffffffffffffffffffffffffffffffffff1603611e17575f6040517f1e4fbdf7000000000000000000000000000000000000000000000000000000008152600401611e0e9190613574565b60405180910390fd5b611e208161213d565b50565b600b602052805f5260405f205f915090505481565b5f634906490660e01b7bffffffffffffffffffffffffffffffffffffffffffffffffffffffff1916827bffffffffffffffffffffffffffffffffffffffffffffffffffffffff19161480611e915750611e908261277b565b5b9050919050565b5f5f611ea383612742565b90505f73ffffffffffffffffffffffffffffffffffffffff168173ffffffffffffffffffffffffffffffffffffffff1603611f1557826040517f7e273289000000000000000000000000000000000000000000000000000000008152600401611f0c9190613521565b60405180910390fd5b80915050919050565b5f60045f8381526020019081526020015f205f9054906101000a900473ffffffffffffffffffffffffffffffffffffffff169050919050565b5f33905090565b611f6b838383600161285c565b505050565b611f78611f57565b73ffffffffffffffffffffffffffffffffffffffff16611f96610f15565b73ffffffffffffffffffffffffffffffffffffffff1614611ff557611fb9611f57565b6040517f118cdaa7000000000000000000000000000000000000000000000000000000008152600401611fec9190613574565b60405180910390fd5b565b61200081612a1b565b6120188160405180602001604052805f815250612281565b50565b5f5f73ffffffffffffffffffffffffffffffffffffffff168473ffffffffffffffffffffffffffffffffffffffff16148061208957505f73ffffffffffffffffffffffffffffffffffffffff1661207184612742565b73ffffffffffffffffffffffffffffffffffffffff16145b6120c8576040517f08c379a00000000000000000000000000000000000000000000000000000000081526004016120bf9061422c565b60405180910390fd5b6120d3848484612a9d565b90509392505050565b6120e4612ca8565b5f60075f6101000a81548160ff0219169083151502179055507f5db9ee0a495bf2e6ff9c91a7834c1ba4fdd244a5e8aa4e537bd38aeae4b073aa612126611f57565b6040516121339190613574565b60405180910390a1565b5f600760019054906101000a900473ffffffffffffffffffffffffffffffffffffffff16905081600760016101000a81548173ffffffffffffffffffffffffffffffffffffffff021916908373ffffffffffffffffffffffffffffffffffffffff1602179055508173ffffffffffffffffffffffffffffffffffffffff168173ffffffffffffffffffffffffffffffffffffffff167f8be0079c531659141344cd1fd0a4f28419497f9722a3daafe3b4186f6b6457e060405160405180910390a35050565b61220a6122db565b600160075f6101000a81548160ff0219169083151502179055507f62e78cea01bee320cd4e420270b5ea74000d11b0c9f74754ebdbfc544b05a25861224d611f57565b60405161225a9190613574565b60405180910390a1565b61227d828260405180602001604052805f815250612ce8565b5050565b8060065f8481526020019081526020015f20908161229f9190613e97565b507ff8e1a15aba9398e019f0b49df1a4fde98ee17ae345cb5f6b5e2c27f5033e8ce7826040516122cf9190613521565b60405180910390a15050565b6122e3610d66565b1561231a576040517fd93c066500000000000000000000000000000000000000000000000000000000815260040160405180910390fd5b565b5f73ffffffffffffffffffffffffffffffffffffffff168273ffffffffffffffffffffffffffffffffffffffff160361238c57816040517f5b08ba180000000000000000000000000000000000000000000000000000000081526004016123839190613574565b60405180910390fd5b8060055f8573ffffffffffffffffffffffffffffffffffffffff1673ffffffffffffffffffffffffffffffffffffffff1681526020019081526020015f205f8473ffffffffffffffffffffffffffffffffffffffff1673ffffffffffffffffffffffffffffffffffffffff1681526020019081526020015f205f6101000a81548160ff0219169083151502179055508173ffffffffffffffffffffffffffffffffffffffff168373ffffffffffffffffffffffffffffffffffffffff167f17307eab39ab6107e8899845ad3d59bd9653f200f220920489ca2b5937696c3183604051612478919061339e565b60405180910390a3505050565b5f8373ffffffffffffffffffffffffffffffffffffffff163b1115612631578273ffffffffffffffffffffffffffffffffffffffff1663150b7a026124c8611f57565b8685856040518563ffffffff1660e01b81526004016124ea949392919061429c565b6020604051808303815f875af192505050801561252557506040513d601f19601f8201168201806040525081019061252291906142fa565b60015b6125a6573d805f8114612553576040519150601f19603f3d011682016040523d82523d5f602084013e612558565b606091505b505f81510361259e57836040517f64a0ae920000000000000000000000000000000000000000000000000000000081526004016125959190613574565b60405180910390fd5b805181602001fd5b63150b7a0260e01b7bffffffffffffffffffffffffffffffffffffffffffffffffffffffff1916817bffffffffffffffffffffffffffffffffffffffffffffffffffffffff19161461262f57836040517f64a0ae920000000000000000000000000000000000000000000000000000000081526004016126269190613574565b60405180910390fd5b505b50505050565b606061264282611e98565b505f60065f8481526020019081526020015f20805461266090613b81565b80601f016020809104026020016040519081016040528092919081815260200182805461268c90613b81565b80156126d75780601f106126ae576101008083540402835291602001916126d7565b820191905f5260205f20905b8154815290600101906020018083116126ba57829003601f168201915b505050505090505f6126e7612d03565b90505f8151036126fb57819250505061273d565b5f8251111561272f57808260405160200161271792919061435f565b6040516020818303038152906040529250505061273d565b61273884612d93565b925050505b919050565b5f60025f8381526020019081526020015f205f9054906101000a900473ffffffffffffffffffffffffffffffffffffffff169050919050565b5f7f80ac58cd000000000000000000000000000000000000000000000000000000007bffffffffffffffffffffffffffffffffffffffffffffffffffffffff1916827bffffffffffffffffffffffffffffffffffffffffffffffffffffffff1916148061284557507f5b5e139f000000000000000000000000000000000000000000000000000000007bffffffffffffffffffffffffffffffffffffffffffffffffffffffff1916827bffffffffffffffffffffffffffffffffffffffffffffffffffffffff1916145b80612855575061285482612df9565b5b9050919050565b808061289457505f73ffffffffffffffffffffffffffffffffffffffff168273ffffffffffffffffffffffffffffffffffffffff1614155b156129c6575f6128a384611e98565b90505f73ffffffffffffffffffffffffffffffffffffffff168373ffffffffffffffffffffffffffffffffffffffff161415801561290d57508273ffffffffffffffffffffffffffffffffffffffff168173ffffffffffffffffffffffffffffffffffffffff1614155b8015612920575061291e8184611ccb565b155b1561296257826040517fa9fbf51f0000000000000000000000000000000000000000000000000000000081526004016129599190613574565b60405180910390fd5b81156129c457838573ffffffffffffffffffffffffffffffffffffffff168273ffffffffffffffffffffffffffffffffffffffff167f8c5be1e5ebec7d5bd14f71427d1e84f3dd0314c0f7b2291e5b200ac8c7c3b92560405160405180910390a45b505b8360045f8581526020019081526020015f205f6101000a81548173ffffffffffffffffffffffffffffffffffffffff021916908373ffffffffffffffffffffffffffffffffffffffff16021790555050505050565b5f612a275f835f61201b565b90505f73ffffffffffffffffffffffffffffffffffffffff168173ffffffffffffffffffffffffffffffffffffffff1603612a9957816040517f7e273289000000000000000000000000000000000000000000000000000000008152600401612a909190613521565b60405180910390fd5b5050565b5f5f612aa884612742565b90505f73ffffffffffffffffffffffffffffffffffffffff168373ffffffffffffffffffffffffffffffffffffffff1614612ae957612ae8818486612e62565b5b5f73ffffffffffffffffffffffffffffffffffffffff168173ffffffffffffffffffffffffffffffffffffffff1614612b7457612b285f855f5f61285c565b600160035f8373ffffffffffffffffffffffffffffffffffffffff1673ffffffffffffffffffffffffffffffffffffffff1681526020019081526020015f205f82825403925050819055505b5f73ffffffffffffffffffffffffffffffffffffffff168573ffffffffffffffffffffffffffffffffffffffff1614612bf357600160035f8773ffffffffffffffffffffffffffffffffffffffff1673ffffffffffffffffffffffffffffffffffffffff1681526020019081526020015f205f82825401925050819055505b8460025f8681526020019081526020015f205f6101000a81548173ffffffffffffffffffffffffffffffffffffffff021916908373ffffffffffffffffffffffffffffffffffffffff160217905550838573ffffffffffffffffffffffffffffffffffffffff168273ffffffffffffffffffffffffffffffffffffffff167fddf252ad1be2c89b69c2b068fc378daa952ba7f163c4a11628f55a4df523b3ef60405160405180910390a4809150509392505050565b612cb0610d66565b612ce6576040517f8dfc202b00000000000000000000000000000000000000000000000000000000815260040160405180910390fd5b565b612cf28383612f25565b612cfe5f848484612485565b505050565b606060098054612d1290613b81565b80601f0160208091040260200160405190810160405280929190818152602001828054612d3e90613b81565b8015612d895780601f10612d6057610100808354040283529160200191612d89565b820191905f5260205f20905b815481529060010190602001808311612d6c57829003601f168201915b5050505050905090565b6060612d9e82611e98565b505f612da8612d03565b90505f815111612dc65760405180602001604052805f815250612df1565b80612dd084613018565b604051602001612de192919061435f565b6040516020818303038152906040525b915050919050565b5f7f01ffc9a7000000000000000000000000000000000000000000000000000000007bffffffffffffffffffffffffffffffffffffffffffffffffffffffff1916827bffffffffffffffffffffffffffffffffffffffffffffffffffffffff1916149050919050565b612e6d8383836130e2565b612f20575f73ffffffffffffffffffffffffffffffffffffffff168373ffffffffffffffffffffffffffffffffffffffff1603612ee157806040517f7e273289000000000000000000000000000000000000000000000000000000008152600401612ed89190613521565b60405180910390fd5b81816040517f177e802f000000000000000000000000000000000000000000000000000000008152600401612f17929190614382565b60405180910390fd5b505050565b5f73ffffffffffffffffffffffffffffffffffffffff168273ffffffffffffffffffffffffffffffffffffffff1603612f95575f6040517f64a0ae92000000000000000000000000000000000000000000000000000000008152600401612f8c9190613574565b60405180910390fd5b5f612fa183835f61201b565b90505f73ffffffffffffffffffffffffffffffffffffffff168173ffffffffffffffffffffffffffffffffffffffff1614613013575f6040517f73c6ac6e00000000000000000000000000000000000000000000000000000000815260040161300a9190613574565b60405180910390fd5b505050565b60605f6001613026846131a2565b0190505f8167ffffffffffffffff811115613044576130436136e7565b5b6040519080825280601f01601f1916602001820160405280156130765781602001600182028036833780820191505090505b5090505f82602001820190505b6001156130d7578080600190039150507f3031323334353637383961626364656600000000000000000000000000000000600a86061a8153600a85816130cc576130cb6143a9565b5b0494505f8503613083575b819350505050919050565b5f5f73ffffffffffffffffffffffffffffffffffffffff168373ffffffffffffffffffffffffffffffffffffffff161415801561319957508273ffffffffffffffffffffffffffffffffffffffff168473ffffffffffffffffffffffffffffffffffffffff16148061315a57506131598484611ccb565b5b8061319857508273ffffffffffffffffffffffffffffffffffffffff1661318083611f1e565b73ffffffffffffffffffffffffffffffffffffffff16145b5b90509392505050565b5f5f5f90507a184f03e93ff9f4daa797ed6e38ed64bf6a1f01000000000000000083106131fe577a184f03e93ff9f4daa797ed6e38ed64bf6a1f01000000000000000083816131f4576131f36143a9565b5b0492506040810190505b6d04ee2d6d415b85acef8100000000831061323b576d04ee2d6d415b85acef81000000008381613231576132306143a9565b5b0492506020810190505b662386f26fc10000831061326a57662386f26fc1000083816132605761325f6143a9565b5b0492506010810190505b6305f5e1008310613293576305f5e1008381613289576132886143a9565b5b0492506008810190505b61271083106132b85761271083816132ae576132ad6143a9565b5b0492506004810190505b606483106132db57606483816132d1576132d06143a9565b5b0492506002810190505b600a83106132ea576001810190505b80915050919050565b5f604051905090565b5f5ffd5b5f5ffd5b5f7fffffffff0000000000000000000000000000000000000000000000000000000082169050919050565b61333881613304565b8114613342575f5ffd5b50565b5f813590506133538161332f565b92915050565b5f6020828403121561336e5761336d6132fc565b5b5f61337b84828501613345565b91505092915050565b5f8115159050919050565b61339881613384565b82525050565b5f6020820190506133b15f83018461338f565b92915050565b5f81519050919050565b5f82825260208201905092915050565b8281835e5f83830152505050565b5f601f19601f8301169050919050565b5f6133f9826133b7565b61340381856133c1565b93506134138185602086016133d1565b61341c816133df565b840191505092915050565b5f6020820190508181035f83015261343f81846133ef565b905092915050565b5f73ffffffffffffffffffffffffffffffffffffffff82169050919050565b5f61347082613447565b9050919050565b61348081613466565b811461348a575f5ffd5b50565b5f8135905061349b81613477565b92915050565b5f819050919050565b6134b3816134a1565b81146134bd575f5ffd5b50565b5f813590506134ce816134aa565b92915050565b5f5f604083850312156134ea576134e96132fc565b5b5f6134f78582860161348d565b9250506020613508858286016134c0565b9150509250929050565b61351b816134a1565b82525050565b5f6020820190506135345f830184613512565b92915050565b5f6020828403121561354f5761354e6132fc565b5b5f61355c848285016134c0565b91505092915050565b61356e81613466565b82525050565b5f6020820190506135875f830184613565565b92915050565b5f602082840312156135a2576135a16132fc565b5b5f6135af8482850161348d565b91505092915050565b5f5f5f606084860312156135cf576135ce6132fc565b5b5f6135dc8682870161348d565b93505060206135ed8682870161348d565b92505060406135fe868287016134c0565b9150509250925092565b5f81519050919050565b5f82825260208201905092915050565b5f819050602082019050919050565b61363a816134a1565b82525050565b5f61364b8383613631565b60208301905092915050565b5f602082019050919050565b5f61366d82613608565b6136778185613612565b935061368283613622565b805f5b838110156136b25781516136998882613640565b97506136a483613657565b925050600181019050613685565b5085935050505092915050565b5f6020820190508181035f8301526136d78184613663565b905092915050565b5f5ffd5b5f5ffd5b7f4e487b71000000000000000000000000000000000000000000000000000000005f52604160045260245ffd5b61371d826133df565b810181811067ffffffffffffffff8211171561373c5761373b6136e7565b5b80604052505050565b5f61374e6132f3565b905061375a8282613714565b919050565b5f67ffffffffffffffff821115613779576137786136e7565b5b613782826133df565b9050602081019050919050565b828183375f83830152505050565b5f6137af6137aa8461375f565b613745565b9050828152602081018484840111156137cb576137ca6136e3565b5b6137d684828561378f565b509392505050565b5f82601f8301126137f2576137f16136df565b5b813561380284826020860161379d565b91505092915050565b5f602082840312156138205761381f6132fc565b5b5f82013567ffffffffffffffff81111561383d5761383c613300565b5b613849848285016137de565b91505092915050565b5f5f5f60608486031215613869576138686132fc565b5b5f6138768682870161348d565b935050602084013567ffffffffffffffff81111561389757613896613300565b5b6138a3868287016137de565b92505060406138b48682870161348d565b9150509250925092565b5f5f604083850312156138d4576138d36132fc565b5b5f6138e18582860161348d565b925050602083013567ffffffffffffffff81111561390257613901613300565b5b61390e858286016137de565b9150509250929050565b61392181613384565b811461392b575f5ffd5b50565b5f8135905061393c81613918565b92915050565b5f5f60408385031215613958576139576132fc565b5b5f6139658582860161348d565b92505060206139768582860161392e565b9150509250929050565b5f67ffffffffffffffff82111561399a576139996136e7565b5b6139a3826133df565b9050602081019050919050565b5f6139c26139bd84613980565b613745565b9050828152602081018484840111156139de576139dd6136e3565b5b6139e984828561378f565b509392505050565b5f82601f830112613a0557613a046136df565b5b8135613a158482602086016139b0565b91505092915050565b5f5f5f5f60808587031215613a3657613a356132fc565b5b5f613a438782880161348d565b9450506020613a548782880161348d565b9350506040613a65878288016134c0565b925050606085013567ffffffffffffffff811115613a8657613a85613300565b5b613a92878288016139f1565b91505092959194509250565b5f608082019050613ab15f830187613512565b613abe602083018661338f565b613acb6040830185613512565b8181036060830152613add8184613663565b905095945050505050565b5f604082019050613afb5f83018561338f565b8181036020830152613b0d81846133ef565b90509392505050565b5f5f60408385031215613b2c57613b2b6132fc565b5b5f613b398582860161348d565b9250506020613b4a8582860161348d565b9150509250929050565b7f4e487b71000000000000000000000000000000000000000000000000000000005f52602260045260245ffd5b5f6002820490506001821680613b9857607f821691505b602082108103613bab57613baa613b54565b5b50919050565b5f606082019050613bc45f830186613565565b613bd16020830185613512565b613bde6040830184613565565b949350505050565b7f4e6f206665657320746f207769746864726177000000000000000000000000005f82015250565b5f613c1a6013836133c1565b9150613c2582613be6565b602082019050919050565b5f6020820190508181035f830152613c4781613c0e565b9050919050565b5f81905092915050565b50565b5f613c665f83613c4e565b9150613c7182613c58565b5f82019050919050565b5f613c8582613c5b565b9150819050919050565b7f5769746864726177616c206661696c65640000000000000000000000000000005f82015250565b5f613cc36011836133c1565b9150613cce82613c8f565b602082019050919050565b5f6020820190508181035f830152613cf081613cb7565b9050919050565b5f819050815f5260205f209050919050565b5f6020601f8301049050919050565b5f82821b905092915050565b5f60088302613d537fffffffffffffffffffffffffffffffffffffffffffffffffffffffffffffffff82613d18565b613d5d8683613d18565b95508019841693508086168417925050509392505050565b5f819050919050565b5f613d98613d93613d8e846134a1565b613d75565b6134a1565b9050919050565b5f819050919050565b613db183613d7e565b613dc5613dbd82613d9f565b848454613d24565b825550505050565b5f5f905090565b613ddc613dcd565b613de7818484613da8565b505050565b5b81811015613e0a57613dff5f82613dd4565b600181019050613ded565b5050565b601f821115613e4f57613e2081613cf7565b613e2984613d09565b81016020851015613e38578190505b613e4c613e4485613d09565b830182613dec565b50505b505050565b5f82821c905092915050565b5f613e6f5f1984600802613e54565b1980831691505092915050565b5f613e878383613e60565b9150826002028217905092915050565b613ea0826133b7565b67ffffffffffffffff811115613eb957613eb86136e7565b5b613ec38254613b81565b613ece828285613e0e565b5f60209050601f831160018114613eff575f8415613eed578287015190505b613ef78582613e7c565b865550613f5e565b601f198416613f0d86613cf7565b5f5b82811015613f3457848901518255600182019150602085019450602081019050613f0f565b86831015613f515784890151613f4d601f891682613e60565b8355505b6001600288020188555050505b505050505050565b7f416c7265616479206861732063657274696669636174650000000000000000005f82015250565b5f613f9a6017836133c1565b9150613fa582613f66565b602082019050919050565b5f6020820190508181035f830152613fc781613f8e565b9050919050565b7f43494420726571756972656400000000000000000000000000000000000000005f82015250565b5f614002600c836133c1565b915061400d82613fce565b602082019050919050565b5f6020820190508181035f83015261402f81613ff6565b9050919050565b7f4e487b71000000000000000000000000000000000000000000000000000000005f52601160045260245ffd5b5f61406d826134a1565b91507fffffffffffffffffffffffffffffffffffffffffffffffffffffffffffffffff820361409f5761409e614036565b5b600182019050919050565b7f4e6f20636572746966696361746520666f756e640000000000000000000000005f82015250565b5f6140de6014836133c1565b91506140e9826140aa565b602082019050919050565b5f6020820190508181035f83015261410b816140d2565b9050919050565b7f4e6f7420617574686f72697a65640000000000000000000000000000000000005f82015250565b5f614146600e836133c1565b915061415182614112565b602082019050919050565b5f6020820190508181035f8301526141738161413a565b9050919050565b7f496e73756666696369656e74206d696e742066656500000000000000000000005f82015250565b5f6141ae6015836133c1565b91506141b98261417a565b602082019050919050565b5f6020820190508181035f8301526141db816141a2565b9050919050565b7f5472616e73666572732064697361626c656400000000000000000000000000005f82015250565b5f6142166012836133c1565b9150614221826141e2565b602082019050919050565b5f6020820190508181035f8301526142438161420a565b9050919050565b5f81519050919050565b5f82825260208201905092915050565b5f61426e8261424a565b6142788185614254565b93506142888185602086016133d1565b614291816133df565b840191505092915050565b5f6080820190506142af5f830187613565565b6142bc6020830186613565565b6142c96040830185613512565b81810360608301526142db8184614264565b905095945050505050565b5f815190506142f48161332f565b92915050565b5f6020828403121561430f5761430e6132fc565b5b5f61431c848285016142e6565b91505092915050565b5f81905092915050565b5f614339826133b7565b6143438185614325565b93506143538185602086016133d1565b80840191505092915050565b5f61436a828561432f565b9150614376828461432f565b91508190509392505050565b5f6040820190506143955f830185613565565b6143a26020830184613512565b9392505050565b7f4e487b71000000000000000000000000000000000000000000000000000000005f52601260045260245ffdfea264697066735822122025d51363a6d993b9e32803827cfe37e4fbaa889757e47888790eaaf26bf0f1d664736f6c634300081c0033","linkReferences":{}},"methodIdentifiers":{"MINT_FEE()":"d7bf81a3","approve(address,uint256)":"095ea7b3","balanceOf(address)":"70a08231","freeMintCredit(address)":"aa23bd78","getApproved(uint256)":"081812fc","getCertificateData(address)":"c3be3ce1","getTokenId(address)":"f1537686","getVersionIds(address)":"76f9c1dd","hasCertificate(address)":"0c02199b","isApprovedForAll(address,address)":"e985e9c5","mint(string)":"d85d3d27","mintFor(address,string,address)":"8fa3e8ac","mintVersion(address,string)":"a1a3d743","name()":"06fdde03","owner()":"8da5cb5b","ownerOf(uint256)":"6352211e","pause()":"8456cb59","paused()":"5c975abb","referralCount(address)":"db74559b","referrers(address)":"4a3b68cc","renounceOwnership()":"715018a6","revoke(uint256)":"20c5429b","safeTransferFrom(address,address,uint256)":"42842e0e","safeTransferFrom(address,address,uint256,bytes)":"b88d4fde","setApprovalForAll(address,bool)":"a22cb465","setBaseGatewayURI(string)":"7bb79427","supportsInterface(bytes4)":"01ffc9a7","symbol()":"95d89b41","tokenIds(address)":"fc97a303","tokenURI(uint256)":"c87b56dd","transferFrom(address,address,uint256)":"23b872dd","transferOwnership(address)":"f2fde38b","unpause()":"3f4ba83a","verifyCertificate(address,uint256)":"d9af3691","versionIds(address,uint256)":"07a4c198","withdrawFees()":"476343ee"},"id":38}